{
  "contractName": "Election",
  "abi": [
    {
      "constant": true,
      "inputs": [],
      "name": "candidatesCount",
      "outputs": [
        {
          "name": "",
          "type": "uint256"
        }
      ],
      "payable": false,
      "stateMutability": "view",
      "type": "function",
      "signature": "0x2d35a8a2"
    },
    {
      "constant": true,
      "inputs": [
        {
          "name": "",
          "type": "uint256"
        }
      ],
      "name": "candidates",
      "outputs": [
        {
          "name": "id",
          "type": "uint256"
        },
        {
          "name": "position",
          "type": "uint256"
        },
        {
          "name": "name",
          "type": "string"
        },
        {
          "name": "voteCount",
          "type": "uint256"
        }
      ],
      "payable": false,
      "stateMutability": "view",
      "type": "function",
      "signature": "0x3477ee2e"
    },
    {
      "constant": true,
      "inputs": [
        {
          "name": "",
          "type": "address"
        },
        {
          "name": "",
          "type": "uint256"
        }
      ],
      "name": "voters",
      "outputs": [
        {
          "name": "",
          "type": "uint256"
        }
      ],
      "payable": false,
      "stateMutability": "view",
      "type": "function",
      "signature": "0x5c134d66"
    },
    {
      "constant": true,
      "inputs": [
        {
          "name": "",
          "type": "uint256"
        }
      ],
      "name": "positions",
      "outputs": [
        {
          "name": "id",
          "type": "uint256"
        },
        {
          "name": "name",
          "type": "string"
        }
      ],
      "payable": false,
      "stateMutability": "view",
      "type": "function",
      "signature": "0x99fbab88"
    },
    {
      "constant": true,
      "inputs": [],
      "name": "positionsCount",
      "outputs": [
        {
          "name": "",
          "type": "uint256"
        }
      ],
      "payable": false,
      "stateMutability": "view",
      "type": "function",
      "signature": "0xaeadb8e0"
    },
    {
      "inputs": [],
      "payable": false,
      "stateMutability": "nonpayable",
      "type": "constructor",
      "signature": "constructor"
    },
    {
      "anonymous": false,
      "inputs": [
        {
          "indexed": true,
          "name": "_candidateIds",
          "type": "uint256[]"
        }
      ],
      "name": "votedEvent",
      "type": "event",
      "signature": "0xa6c7426a815a14c53aa622dc6aa839e1e21e7a3071b913967b7b994e98cc405c"
    },
    {
      "constant": true,
      "inputs": [],
      "name": "getVotersLength",
      "outputs": [
        {
          "name": "",
          "type": "uint256"
        }
      ],
      "payable": false,
      "stateMutability": "view",
      "type": "function",
      "signature": "0xde2237d3"
    },
    {
      "constant": true,
      "inputs": [
        {
          "name": "index",
          "type": "uint256"
        }
      ],
      "name": "getVotersVote",
      "outputs": [
        {
          "name": "",
          "type": "uint256"
        }
      ],
      "payable": false,
      "stateMutability": "view",
      "type": "function",
      "signature": "0xb0df2066"
    },
    {
      "constant": false,
      "inputs": [
        {
          "name": "_candidateIds",
          "type": "uint256[]"
        }
      ],
      "name": "vote",
      "outputs": [],
      "payable": false,
      "stateMutability": "nonpayable",
      "type": "function",
      "signature": "0xce11f2bb"
    }
  ],
  "bytecode": "0x60806040523480156200001157600080fd5b50620000616040805190810160405280601781526020017f41742d4c6172676520526570726573656e74617469766500000000000000000081525062000709640100000000026401000000009004565b620000b06040805190810160405280600b81526020017f4a756c696120536d69746800000000000000000000000000000000000000000081525062000776640100000000026401000000009004565b620000ff6040805190810160405280600d81526020017f52656e65747420436c6f7567680000000000000000000000000000000000000081525062000776640100000000026401000000009004565b6200014e6040805190810160405280600c81526020017f427269616e204d634e65696c000000000000000000000000000000000000000081525062000776640100000000026401000000009004565b6200019d6040805190810160405280600f81526020017f4775696c6c61756d65204d65796572000000000000000000000000000000000081525062000776640100000000026401000000009004565b620001ec6040805190810160405280601a81526020017f466169746820426173656420526570726573656e74617469766500000000000081525062000709640100000000026401000000009004565b6200023b6040805190810160405280601581526020017f4a6f686e204d2e2043756c706570706572204a722e000000000000000000000081525062000776640100000000026401000000009004565b6200028a6040805190810160405280600f81526020017f5061726c69616d656e74617269616e000000000000000000000000000000000081525062000709640100000000026401000000009004565b620002d96040805190810160405280601981526020017f4b696d6d61726965204a6f686e736f6e2d526f757373656c6c0000000000000081525062000776640100000000026401000000009004565b620003286040805190810160405280600981526020017f536563726574617279000000000000000000000000000000000000000000000081525062000709640100000000026401000000009004565b620003776040805190810160405280600a81526020017f546172612050657272790000000000000000000000000000000000000000000081525062000776640100000000026401000000009004565b620003c66040805190810160405280600e81526020017f5669636520507265736964656e7400000000000000000000000000000000000081525062000709640100000000026401000000009004565b620004156040805190810160405280601581526020017f56656c6d61205665726e6963652053746576656e73000000000000000000000081525062000776640100000000026401000000009004565b620004646040805190810160405280600c81526020017f4a6573736963612043686f77000000000000000000000000000000000000000081525062000776640100000000026401000000009004565b620004da606060405190810160405280602481526020017f566965772048656967687473205265736964656e7420526570726573656e746181526020017f746976650000000000000000000000000000000000000000000000000000000081525062000709640100000000026401000000009004565b620005296040805190810160405280600f81526020017f4465727269636b20536f6c6f6d6f6e000000000000000000000000000000000081525062000776640100000000026401000000009004565b620005786040805190810160405280601181526020017f4361726f6c2044657262792d446176696400000000000000000000000000000081525062000776640100000000026401000000009004565b620005c76040805190810160405280600e81526020017f52656e6565204d2e204469786f6e00000000000000000000000000000000000081525062000776640100000000026401000000009004565b620006166040805190810160405280602081526020017f596f7574682f456475636174696f6e616c20526570726573656e74617469766581525062000709640100000000026401000000009004565b620006656040805190810160405280600e81526020017f416c6c616e2043616c6477656c6c00000000000000000000000000000000000081525062000776640100000000026401000000009004565b620006b46040805190810160405280601081526020017f4175647265204c6f70657a204b696e670000000000000000000000000000000081525062000776640100000000026401000000009004565b620007036040805190810160405280601281526020017f54696666616e7920432e205a616368657279000000000000000000000000000081525062000776640100000000026401000000009004565b620008b6565b60026000815480929190600101919050555060408051908101604052806002548152602001828152506001600060025481526020019081526020016000206000820151816000015560208201518160010190805190602001906200076f92919062000807565b5090505050565b60046000815480929190600101919050555060806040519081016040528060045481526020016002548152602001828152602001600081525060036000600454815260200190815260200160002060008201518160000155602082015181600101556040820151816002019080519060200190620007f692919062000807565b506060820151816003015590505050565b828054600181600116156101000203166002900490600052602060002090601f016020900481019282601f106200084a57805160ff19168380011785556200087b565b828001600101855582156200087b579182015b828111156200087a5782518255916020019190600101906200085d565b5b5090506200088a91906200088e565b5090565b620008b391905b80821115620008af57600081600090555060010162000895565b5090565b90565b610ab280620008c66000396000f3fe60806040526004361061008e576000357c0100000000000000000000000000000000000000000000000000000000900463ffffffff1680632d35a8a2146100935780633477ee2e146100be5780635c134d661461018757806399fbab88146101f6578063aeadb8e0146102b1578063b0df2066146102dc578063ce11f2bb1461032b578063de2237d3146103f0575b600080fd5b34801561009f57600080fd5b506100a861041b565b6040518082815260200191505060405180910390f35b3480156100ca57600080fd5b506100f7600480360360208110156100e157600080fd5b8101908080359060200190929190505050610421565b6040518085815260200184815260200180602001838152602001828103825284818151815260200191508051906020019080838360005b8381101561014957808201518184015260208101905061012e565b50505050905090810190601f1680156101765780820380516001836020036101000a031916815260200191505b509550505050505060405180910390f35b34801561019357600080fd5b506101e0600480360360408110156101aa57600080fd5b81019080803573ffffffffffffffffffffffffffffffffffffffff169060200190929190803590602001909291905050506104e9565b6040518082815260200191505060405180910390f35b34801561020257600080fd5b5061022f6004803603602081101561021957600080fd5b8101908080359060200190929190505050610519565b6040518083815260200180602001828103825283818151815260200191508051906020019080838360005b8381101561027557808201518184015260208101905061025a565b50505050905090810190601f1680156102a25780820380516001836020036101000a031916815260200191505b50935050505060405180910390f35b3480156102bd57600080fd5b506102c66105d5565b6040518082815260200191505060405180910390f35b3480156102e857600080fd5b50610315600480360360208110156102ff57600080fd5b81019080803590602001909291905050506105db565b6040518082815260200191505060405180910390f35b34801561033757600080fd5b506103ee6004803603602081101561034e57600080fd5b810190808035906020019064010000000081111561036b57600080fd5b82018360208201111561037d57600080fd5b8035906020019184602083028401116401000000008311171561039f57600080fd5b919080806020026020016040519081016040528093929190818152602001838360200280828437600081840152601f19601f82011690508083019250505050505050919291929050505061063a565b005b3480156103fc57600080fd5b50610405610a3d565b6040518082815260200191505060405180910390f35b60045481565b6003602052806000526040600020600091509050806000015490806001015490806002018054600181600116156101000203166002900480601f0160208091040260200160405190810160405280929190818152602001828054600181600116156101000203166002900480156104d95780601f106104ae576101008083540402835291602001916104d9565b820191906000526020600020905b8154815290600101906020018083116104bc57829003601f168201915b5050505050908060030154905084565b60006020528160005260406000208181548110151561050457fe5b90600052602060002001600091509150505481565b6001602052806000526040600020600091509050806000015490806001018054600181600116156101000203166002900480601f0160208091040260200160405190810160405280929190818152602001828054600181600116156101000203166002900480156105cb5780601f106105a0576101008083540402835291602001916105cb565b820191906000526020600020905b8154815290600101906020018083116105ae57829003601f168201915b5050505050905082565b60025481565b60008060003373ffffffffffffffffffffffffffffffffffffffff1673ffffffffffffffffffffffffffffffffffffffff1681526020019081526020016000208281548110151561062857fe5b90600052602060002001549050919050565b6000610644610a3d565b1415156106b9576040517f08c379a00000000000000000000000000000000000000000000000000000000081526004018080602001828103825260148152602001807f53656e64657220616c726561647920766f74656400000000000000000000000081525060200191505060405180910390fd5b60606001600254016040519080825280602002602001820160405280156106ef5781602001602082028038833980820191505090505b50905060008090505b82518110156108f0576000838281518110151561071157fe5b906020019060200201511180156107415750600454838281518110151561073457fe5b9060200190602002015111155b15156107b5576040517f08c379a00000000000000000000000000000000000000000000000000000000081526004018080602001828103825260148152602001807f496e76616c69642043616e64696461746520494400000000000000000000000081525060200191505060405180910390fd5b6001826003600086858151811015156107ca57fe5b906020019060200201518152602001908152602001600020600101548151811015156107f257fe5b9060200190602002015114151515610898576040517f08c379a00000000000000000000000000000000000000000000000000000000081526004018080602001828103825260228152602001807f4f6e6c79206f6e6520766f746520616c6c6f7765642070657220706f7369746981526020017f6f6e00000000000000000000000000000000000000000000000000000000000081525060400191505060405180910390fd5b6001826003600086858151811015156108ad57fe5b906020019060200201518152602001908152602001600020600101548151811015156108d557fe5b906020019060200201818152505080806001019150506106f8565b5060008090505b82518110156109c95760036000848381518110151561091257fe5b906020019060200201518152602001908152602001600020600301600081548092919060010191905055506000803373ffffffffffffffffffffffffffffffffffffffff1673ffffffffffffffffffffffffffffffffffffffff168152602001908152602001600020838281518110151561098957fe5b90602001906020020151908060018154018082558091505090600182039060005260206000200160009091929091909150555080806001019150506108f7565b508160405180828051906020019060200280838360005b838110156109fb5780820151818401526020810190506109e0565b5050505090500191505060405180910390207fa6c7426a815a14c53aa622dc6aa839e1e21e7a3071b913967b7b994e98cc405c60405160405180910390a25050565b60008060003373ffffffffffffffffffffffffffffffffffffffff1673ffffffffffffffffffffffffffffffffffffffff1681526020019081526020016000208054905090509056fea165627a7a72305820126e08d462327fd13a2b40b07678e8ac78db69cb35a754ab2eb337d48705d9ba0029",
  "source": "pragma solidity ^0.5.0;\n\ncontract Election {\n    // Model a position\n    struct Position {\n        uint id;\n        string name;\n    }\n\n    // Model a Candidate\n    struct Candidate {\n        uint id;\n        uint position;\n        string name;\n        uint voteCount;\n    }\n\n    // Store accounts that have voted\n    mapping(address => uint[]) public voters;\n\n    // Store Positions\n    // Fetch Positions\n    mapping(uint => Position) public positions;\n\n    // Store Positions Count\n    uint public positionsCount;\n\n    // Store Candidates\n    // Fetch Candidate\n    mapping(uint => Candidate) public candidates;\n\n    // Store Candidates Count\n    uint public candidatesCount;\n\n    // voted event\n    event votedEvent (\n        uint[] indexed _candidateIds\n    );\n\n    constructor () public {\n        addPosition(\"At-Large Representative\");\n        addCandidate(\"Julia Smith\");\n        addCandidate(\"Renett Clough\");\n        addCandidate(\"Brian McNeil\");\n        addCandidate(\"Guillaume Meyer\");\n\n        addPosition(\"Faith Based Representative\");\n        addCandidate(\"John M. Culpepper Jr.\");\n\n        addPosition(\"Parliamentarian\");\n        addCandidate(\"Kimmarie Johnson-Roussell\");\n\n        addPosition(\"Secretary\");\n        addCandidate(\"Tara Perry\");\n\n        addPosition(\"Vice President\");\n        addCandidate(\"Velma Vernice Stevens\");\n        addCandidate(\"Jessica Chow\");\n\n        addPosition(\"View Heights Resident Representative\");\n        addCandidate(\"Derrick Solomon\");\n        addCandidate(\"Carol Derby-David\");\n        addCandidate(\"Renee M. Dixon\");\n\n        addPosition(\"Youth/Educational Representative\");\n        addCandidate(\"Allan Caldwell\");\n        addCandidate(\"Audre Lopez King\");\n        addCandidate(\"Tiffany C. Zachery\");\n    }\n\n    function getVotersLength() public view returns (uint) {\n        return voters[msg.sender].length;\n    }\n\n    function getVotersVote(uint index) public view returns (uint) {\n        return voters[msg.sender][index];\n    }\n\n    function addCandidate (string memory _name) private {\n        candidatesCount ++;\n        candidates[candidatesCount] = Candidate(candidatesCount, positionsCount, _name, 0);\n    }\n\n    function addPosition (string memory _name) private {\n        positionsCount ++;\n        positions[positionsCount] = Position(positionsCount, _name);\n    }\n\n    function vote (uint[] memory _candidateIds) public {\n        // require that they haven't voted before\n        require(getVotersLength() == 0, \"Sender already voted\");\n\n        uint[] memory positionVoted = new uint[](positionsCount + 1);\n\n        for (uint i = 0; i < _candidateIds.length; i++) {\n\n            // require each candidate has a valid id\n            require(_candidateIds[i] > 0 && _candidateIds[i] <= candidatesCount, \"Invalid Candidate ID\");\n\n            // require only on candidate per position is selected\n            require(positionVoted[candidates[_candidateIds[i]].position] != 1, \"Only one vote allowed per position\");\n            //require(inArray(positionVoted, candidates[_candidateIds[i]].position));\n\n            positionVoted[candidates[_candidateIds[i]].position] = 1;\n        }\n\n        // update candidate vote Count\n        for (uint i = 0; i < _candidateIds.length; i++) {\n            candidates[_candidateIds[i]].voteCount++;\n            voters[msg.sender].push(_candidateIds[i]);\n        }\n\n        // trigger voted event\n        emit votedEvent(_candidateIds);\n    }\n}\n",
  "sourcePath": "/Users/moseley/Code/truvote/demo/contracts/Election.sol",
  "compiler": {
    "name": "solc",
    "version": "0.5.0+commit.1d4f565a.Emscripten.clang"
  },
  "schemaVersion": "3.0.8",
  "updatedAt": "2019-05-23T12:25:50.865Z",
  "devdoc": {
    "methods": {}
  },
  "userdoc": {
    "methods": {}
  }
}