{
  "contractName": "Election",
  "abi": [
    {
      "constant": true,
      "inputs": [],
      "name": "candidatesCount",
      "outputs": [
        {
          "name": "",
          "type": "uint256"
        }
      ],
      "payable": false,
      "stateMutability": "view",
      "type": "function"
    },
    {
      "constant": true,
      "inputs": [
        {
          "name": "",
          "type": "uint256"
        }
      ],
      "name": "candidates",
      "outputs": [
        {
          "name": "id",
          "type": "uint256"
        },
        {
          "name": "position",
          "type": "uint256"
        },
        {
          "name": "name",
          "type": "string"
        },
        {
          "name": "voteCount",
          "type": "uint256"
        }
      ],
      "payable": false,
      "stateMutability": "view",
      "type": "function"
    },
    {
      "constant": true,
      "inputs": [
        {
          "name": "",
          "type": "uint256"
        }
      ],
      "name": "positions",
      "outputs": [
        {
          "name": "id",
          "type": "uint256"
        },
        {
          "name": "name",
          "type": "string"
        }
      ],
      "payable": false,
      "stateMutability": "view",
      "type": "function"
    },
    {
      "constant": true,
      "inputs": [
        {
          "name": "",
          "type": "address"
        }
      ],
      "name": "voters",
      "outputs": [
        {
          "name": "",
          "type": "bool"
        }
      ],
      "payable": false,
      "stateMutability": "view",
      "type": "function"
    },
    {
      "constant": true,
      "inputs": [],
      "name": "positionsCount",
      "outputs": [
        {
          "name": "",
          "type": "uint256"
        }
      ],
      "payable": false,
      "stateMutability": "view",
      "type": "function"
    },
    {
      "inputs": [],
      "payable": false,
      "stateMutability": "nonpayable",
      "type": "constructor"
    },
    {
      "anonymous": false,
      "inputs": [
        {
          "indexed": true,
          "name": "_candidateIds",
          "type": "uint256[]"
        }
      ],
      "name": "votedEvent",
      "type": "event"
    },
    {
      "constant": false,
      "inputs": [
        {
          "name": "_candidateIds",
          "type": "uint256[]"
        }
      ],
      "name": "vote",
      "outputs": [],
      "payable": false,
      "stateMutability": "nonpayable",
      "type": "function"
    }
  ],
  "bytecode": "0x60806040523480156200001157600080fd5b50620000616040805190810160405280601781526020017f41742d4c6172676520526570726573656e74617469766500000000000000000081525062000709640100000000026401000000009004565b620000b06040805190810160405280600b81526020017f4a756c696120536d69746800000000000000000000000000000000000000000081525062000776640100000000026401000000009004565b620000ff6040805190810160405280600d81526020017f52656e65747420436c6f7567680000000000000000000000000000000000000081525062000776640100000000026401000000009004565b6200014e6040805190810160405280600c81526020017f427269616e204d634e65696c000000000000000000000000000000000000000081525062000776640100000000026401000000009004565b6200019d6040805190810160405280600f81526020017f4775696c6c61756d65204d65796572000000000000000000000000000000000081525062000776640100000000026401000000009004565b620001ec6040805190810160405280601a81526020017f466169746820426173656420526570726573656e74617469766500000000000081525062000709640100000000026401000000009004565b6200023b6040805190810160405280601581526020017f4a6f686e204d2e2043756c706570706572204a722e000000000000000000000081525062000776640100000000026401000000009004565b6200028a6040805190810160405280600f81526020017f5061726c69616d656e74617269616e000000000000000000000000000000000081525062000709640100000000026401000000009004565b620002d96040805190810160405280601981526020017f4b696d6d61726965204a6f686e736f6e2d526f757373656c6c0000000000000081525062000776640100000000026401000000009004565b620003286040805190810160405280600981526020017f536563726574617279000000000000000000000000000000000000000000000081525062000709640100000000026401000000009004565b620003776040805190810160405280600a81526020017f546172612050657272790000000000000000000000000000000000000000000081525062000776640100000000026401000000009004565b620003c66040805190810160405280600e81526020017f5669636520507265736964656e7400000000000000000000000000000000000081525062000709640100000000026401000000009004565b620004156040805190810160405280601581526020017f56656c6d61205665726e6963652053746576656e73000000000000000000000081525062000776640100000000026401000000009004565b620004646040805190810160405280600c81526020017f4a6573736963612043686f77000000000000000000000000000000000000000081525062000776640100000000026401000000009004565b620004da606060405190810160405280602481526020017f566965772048656967687473205265736964656e7420526570726573656e746181526020017f746976650000000000000000000000000000000000000000000000000000000081525062000709640100000000026401000000009004565b620005296040805190810160405280600f81526020017f4465727269636b20536f6c6f6d6f6e000000000000000000000000000000000081525062000776640100000000026401000000009004565b620005786040805190810160405280601181526020017f4361726f6c2044657262792d446176696400000000000000000000000000000081525062000776640100000000026401000000009004565b620005c76040805190810160405280600e81526020017f52656e6565204d2e204469786f6e00000000000000000000000000000000000081525062000776640100000000026401000000009004565b620006166040805190810160405280602081526020017f596f7574682f456475636174696f6e616c20526570726573656e74617469766581525062000709640100000000026401000000009004565b620006656040805190810160405280600e81526020017f416c6c616e2043616c6477656c6c00000000000000000000000000000000000081525062000776640100000000026401000000009004565b620006b46040805190810160405280601081526020017f4175647265204c6f70657a204b696e670000000000000000000000000000000081525062000776640100000000026401000000009004565b620007036040805190810160405280601281526020017f54696666616e7920432e205a616368657279000000000000000000000000000081525062000776640100000000026401000000009004565b620008b6565b60026000815480929190600101919050555060408051908101604052806002548152602001828152506001600060025481526020019081526020016000206000820151816000015560208201518160010190805190602001906200076f92919062000807565b5090505050565b60046000815480929190600101919050555060806040519081016040528060045481526020016002548152602001828152602001600081525060036000600454815260200190815260200160002060008201518160000155602082015181600101556040820151816002019080519060200190620007f692919062000807565b506060820151816003015590505050565b828054600181600116156101000203166002900490600052602060002090601f016020900481019282601f106200084a57805160ff19168380011785556200087b565b828001600101855582156200087b579182015b828111156200087a5782518255916020019190600101906200085d565b5b5090506200088a91906200088e565b5090565b620008b391905b80821115620008af57600081600090555060010162000895565b5090565b90565b61081d80620008c66000396000f3fe608060405260043610610078576000357c0100000000000000000000000000000000000000000000000000000000900463ffffffff1680632d35a8a21461007d5780633477ee2e146100a857806399fbab8814610171578063a3ec138d1461022c578063aeadb8e014610295578063ce11f2bb146102c0575b600080fd5b34801561008957600080fd5b50610092610385565b6040518082815260200191505060405180910390f35b3480156100b457600080fd5b506100e1600480360360208110156100cb57600080fd5b810190808035906020019092919050505061038b565b6040518085815260200184815260200180602001838152602001828103825284818151815260200191508051906020019080838360005b83811015610133578082015181840152602081019050610118565b50505050905090810190601f1680156101605780820380516001836020036101000a031916815260200191505b509550505050505060405180910390f35b34801561017d57600080fd5b506101aa6004803603602081101561019457600080fd5b8101908080359060200190929190505050610453565b6040518083815260200180602001828103825283818151815260200191508051906020019080838360005b838110156101f05780820151818401526020810190506101d5565b50505050905090810190601f16801561021d5780820380516001836020036101000a031916815260200191505b50935050505060405180910390f35b34801561023857600080fd5b5061027b6004803603602081101561024f57600080fd5b81019080803573ffffffffffffffffffffffffffffffffffffffff16906020019092919050505061050f565b604051808215151515815260200191505060405180910390f35b3480156102a157600080fd5b506102aa61052f565b6040518082815260200191505060405180910390f35b3480156102cc57600080fd5b50610383600480360360208110156102e357600080fd5b810190808035906020019064010000000081111561030057600080fd5b82018360208201111561031257600080fd5b8035906020019184602083028401116401000000008311171561033457600080fd5b919080806020026020016040519081016040528093929190818152602001838360200280828437600081840152601f19601f820116905080830192505050505050509192919290505050610535565b005b60045481565b6003602052806000526040600020600091509050806000015490806001015490806002018054600181600116156101000203166002900480601f0160208091040260200160405190810160405280929190818152602001828054600181600116156101000203166002900480156104435780601f1061041857610100808354040283529160200191610443565b820191906000526020600020905b81548152906001019060200180831161042657829003601f168201915b5050505050908060030154905084565b6001602052806000526040600020600091509050806000015490806001018054600181600116156101000203166002900480601f0160208091040260200160405190810160405280929190818152602001828054600181600116156101000203166002900480156105055780601f106104da57610100808354040283529160200191610505565b820191906000526020600020905b8154815290600101906020018083116104e857829003601f168201915b5050505050905082565b60006020528060005260406000206000915054906101000a900460ff1681565b60025481565b6000803373ffffffffffffffffffffffffffffffffffffffff1673ffffffffffffffffffffffffffffffffffffffff16815260200190815260200160002060009054906101000a900460ff1615151561058d57600080fd5b60606001600254016040519080825280602002602001820160405280156105c35781602001602082028038833980820191505090505b50905060008090505b82518110156106cc57600083828151811015156105e557fe5b906020019060200201511180156106155750600454838281518110151561060857fe5b9060200190602002015111155b151561062057600080fd5b60018260036000868581518110151561063557fe5b9060200190602002015181526020019081526020016000206001015481518110151561065d57fe5b906020019060200201511415151561067457600080fd5b60018260036000868581518110151561068957fe5b906020019060200201518152602001908152602001600020600101548151811015156106b157fe5b906020019060200201818152505080806001019150506105cc565b5060016000803373ffffffffffffffffffffffffffffffffffffffff1673ffffffffffffffffffffffffffffffffffffffff16815260200190815260200160002060006101000a81548160ff02191690831515021790555060008090505b825181101561077d5760036000848381518110151561074557fe5b90602001906020020151815260200190815260200160002060030160008154809291906001019190505550808060010191505061072a565b508160405180828051906020019060200280838360005b838110156107af578082015181840152602081019050610794565b5050505090500191505060405180910390207fa6c7426a815a14c53aa622dc6aa839e1e21e7a3071b913967b7b994e98cc405c60405160405180910390a2505056fea165627a7a72305820abdb8bac09e8c127fd8510cd16ed27adf1eaa6aa78bfd763f33f2055d350ffe20029",
  "source": "pragma solidity ^0.5.0;\r\n\r\ncontract Election {\r\n    // Model a position\r\n    struct Position {\r\n        uint id;\r\n        string name;\r\n    }\r\n\r\n    // Model a Candidate\r\n    struct Candidate {\r\n        uint id;\r\n        uint position;\r\n        string name;\r\n        uint voteCount;\r\n    }\r\n\r\n    // Store accounts that have voted\r\n    mapping(address => bool) public voters;\r\n\r\n    // Store Positions\r\n    // Fetch Positions\r\n    mapping(uint => Position) public positions;\r\n\r\n    // Store Positions Count\r\n    uint public positionsCount;\r\n\r\n    // Store Candidates\r\n    // Fetch Candidate\r\n    mapping(uint => Candidate) public candidates;\r\n    \r\n    // Store Candidates Count\r\n    uint public candidatesCount;\r\n\r\n    // voted event\r\n    event votedEvent (\r\n        uint[] indexed _candidateIds\r\n    );\r\n\r\n    constructor () public {\r\n        addPosition(\"At-Large Representative\");\r\n        addCandidate(\"Julia Smith\");\r\n        addCandidate(\"Renett Clough\");\r\n        addCandidate(\"Brian McNeil\");\r\n        addCandidate(\"Guillaume Meyer\");\r\n        \r\n        addPosition(\"Faith Based Representative\");\r\n        addCandidate(\"John M. Culpepper Jr.\");\r\n        \r\n        addPosition(\"Parliamentarian\");\r\n        addCandidate(\"Kimmarie Johnson-Roussell\");\r\n        \r\n        addPosition(\"Secretary\");\r\n        addCandidate(\"Tara Perry\");\r\n        \r\n        addPosition(\"Vice President\");\r\n        addCandidate(\"Velma Vernice Stevens\");\r\n        addCandidate(\"Jessica Chow\");\r\n        \r\n        addPosition(\"View Heights Resident Representative\");\r\n        addCandidate(\"Derrick Solomon\");\r\n        addCandidate(\"Carol Derby-David\");\r\n        addCandidate(\"Renee M. Dixon\");\r\n        \r\n        addPosition(\"Youth/Educational Representative\");\r\n        addCandidate(\"Allan Caldwell\");\r\n        addCandidate(\"Audre Lopez King\");\r\n        addCandidate(\"Tiffany C. Zachery\");\r\n        \r\n    }\r\n\r\n    function addCandidate (string memory _name) private {\r\n        candidatesCount ++;\r\n        candidates[candidatesCount] = Candidate(candidatesCount, positionsCount, _name, 0);\r\n    }\r\n\r\n    function addPosition (string memory _name) private {\r\n        positionsCount ++;\r\n        positions[positionsCount] = Position(positionsCount, _name);\r\n    }\r\n\r\n    function vote (uint[] memory _candidateIds) public {\r\n        // require that they haven't voted before\r\n        require(!voters[msg.sender]);\r\n\r\n        uint[] memory positionVoted = new uint[](positionsCount + 1);\r\n\r\n        for (uint i = 0; i < _candidateIds.length; i++) {\r\n\r\n            // require each candidate has a valid id\r\n            require(_candidateIds[i] > 0 && _candidateIds[i] <= candidatesCount);\r\n\r\n            // require only on candidate per position is selected\r\n            require(positionVoted[candidates[_candidateIds[i]].position] != 1);\r\n            //require(inArray(positionVoted, candidates[_candidateIds[i]].position));\r\n\r\n            positionVoted[candidates[_candidateIds[i]].position] = 1;\r\n        }\r\n\r\n        // record that voter has voted\r\n        voters[msg.sender] = true;\r\n\r\n        // update candidate vote Count\r\n        for (uint i = 0; i < _candidateIds.length; i++) {\r\n            candidates[_candidateIds[i]].voteCount++;\r\n        }\r\n\r\n        // trigger voted event\r\n        emit votedEvent(_candidateIds);\r\n    }\r\n}\r\n",
  "sourcePath": "D:/Code/truvote/Demo/contracts/Election.sol",
  "compiler": {
    "name": "solc",
    "version": "0.5.0+commit.1d4f565a.Emscripten.clang"
  },
  "schemaVersion": "3.0.9",
  "updatedAt": "2019-05-12T07:29:45.631Z",
  "devdoc": {
    "methods": {}
  },
  "userdoc": {
    "methods": {}
  }
}